:100000000C942A000C9471000C9471000C947100F3
:100010000C9471000C9471000C9471000C9471009C
:100020000C9471000C9471000C9471000C9471008C
:100030000C9471000C9471000C9471000C9471007C
:100040000C9471000C9471000C9471000C9471006C
:100050000C94710011241FBECFE5D8E0DEBFCDBFE8
:0C0060000E9436000C943400F894FFCF8E
:10006C000E9468000E946D0080E00E94530088236B
:10007C0011F0AA9AF9CF86E00E945300882311F060
:10008C00AF9AF2CF82E00E945300882311F0939A2A
:0A009C00EBCFAA98AF989398E7CF36
:1000A600811103C086B381700895863029F480B328
:1000B60086FB882780F90895823029F480B382FB75
:0A00C600882780F9089580E008956E
:0A00D00084B3846884BB8B9A089502
:0800DA00B8988E988A980895E9
:0400E2000C9400007A
:00000001FF
